{
  "_format": "hh-sol-artifact-1",
  "contractName": "GDSC",
  "sourceName": "contracts/GDSC.sol",
  "abi": [
    {
      "anonymous": false,
      "inputs": [
        {
          "indexed": true,
          "internalType": "address",
          "name": "owner",
          "type": "address"
        },
        {
          "indexed": true,
          "internalType": "address",
          "name": "approved",
          "type": "address"
        },
        {
          "indexed": true,
          "internalType": "uint256",
          "name": "tokenId",
          "type": "uint256"
        }
      ],
      "name": "Approval",
      "type": "event"
    },
    {
      "anonymous": false,
      "inputs": [
        {
          "indexed": true,
          "internalType": "address",
          "name": "owner",
          "type": "address"
        },
        {
          "indexed": true,
          "internalType": "address",
          "name": "operator",
          "type": "address"
        },
        {
          "indexed": false,
          "internalType": "bool",
          "name": "approved",
          "type": "bool"
        }
      ],
      "name": "ApprovalForAll",
      "type": "event"
    },
    {
      "anonymous": false,
      "inputs": [
        {
          "indexed": true,
          "internalType": "address",
          "name": "from",
          "type": "address"
        },
        {
          "indexed": true,
          "internalType": "address",
          "name": "to",
          "type": "address"
        },
        {
          "indexed": true,
          "internalType": "uint256",
          "name": "tokenId",
          "type": "uint256"
        }
      ],
      "name": "Transfer",
      "type": "event"
    },
    {
      "inputs": [
        {
          "internalType": "address",
          "name": "to",
          "type": "address"
        },
        {
          "internalType": "uint256",
          "name": "tokenId",
          "type": "uint256"
        }
      ],
      "name": "approve",
      "outputs": [],
      "stateMutability": "nonpayable",
      "type": "function"
    },
    {
      "inputs": [
        {
          "internalType": "address",
          "name": "owner",
          "type": "address"
        }
      ],
      "name": "balanceOf",
      "outputs": [
        {
          "internalType": "uint256",
          "name": "",
          "type": "uint256"
        }
      ],
      "stateMutability": "view",
      "type": "function"
    },
    {
      "inputs": [
        {
          "internalType": "uint256",
          "name": "tokenId",
          "type": "uint256"
        }
      ],
      "name": "getApproved",
      "outputs": [
        {
          "internalType": "address",
          "name": "",
          "type": "address"
        }
      ],
      "stateMutability": "view",
      "type": "function"
    },
    {
      "inputs": [
        {
          "internalType": "address",
          "name": "owner",
          "type": "address"
        },
        {
          "internalType": "address",
          "name": "operator",
          "type": "address"
        }
      ],
      "name": "isApprovedForAll",
      "outputs": [
        {
          "internalType": "bool",
          "name": "",
          "type": "bool"
        }
      ],
      "stateMutability": "view",
      "type": "function"
    },
    {
      "inputs": [
        {
          "internalType": "address",
          "name": "to",
          "type": "address"
        }
      ],
      "name": "mint",
      "outputs": [],
      "stateMutability": "nonpayable",
      "type": "function"
    },
    {
      "inputs": [
        {
          "internalType": "uint256",
          "name": "tokenId",
          "type": "uint256"
        }
      ],
      "name": "ownerOf",
      "outputs": [
        {
          "internalType": "address",
          "name": "",
          "type": "address"
        }
      ],
      "stateMutability": "view",
      "type": "function"
    },
    {
      "inputs": [
        {
          "internalType": "address",
          "name": "operator",
          "type": "address"
        },
        {
          "internalType": "bool",
          "name": "approved",
          "type": "bool"
        }
      ],
      "name": "setApprovalForAll",
      "outputs": [],
      "stateMutability": "nonpayable",
      "type": "function"
    },
    {
      "inputs": [
        {
          "internalType": "address",
          "name": "from",
          "type": "address"
        },
        {
          "internalType": "address",
          "name": "to",
          "type": "address"
        },
        {
          "internalType": "uint256",
          "name": "tokenId",
          "type": "uint256"
        }
      ],
      "name": "transferFrom",
      "outputs": [],
      "stateMutability": "nonpayable",
      "type": "function"
    }
  ],
  "bytecode": "0x608060405234801561001057600080fd5b506112f3806100206000396000f3fe608060405234801561001057600080fd5b50600436106100885760003560e01c80636a6278421161005b5780636a6278421461012557806370a0823114610141578063a22cb46514610171578063e985e9c51461018d57610088565b8063081812fc1461008d578063095ea7b3146100bd57806323b872dd146100d95780636352211e146100f5575b600080fd5b6100a760048036038101906100a29190610c97565b6101bd565b6040516100b49190610d05565b60405180910390f35b6100d760048036038101906100d29190610d4c565b6101fa565b005b6100f360048036038101906100ee9190610d8c565b610362565b005b61010f600480360381019061010a9190610c97565b6103bb565b60405161011c9190610d05565b60405180910390f35b61013f600480360381019061013a9190610ddf565b61046b565b005b61015b60048036038101906101569190610ddf565b6105ff565b6040516101689190610e1b565b60405180910390f35b61018b60048036038101906101869190610e6e565b6106b6565b005b6101a760048036038101906101a29190610eae565b610821565b6040516101b49190610efd565b60405180910390f35b60006001600083815260200190815260200160002060009054906101000a900473ffffffffffffffffffffffffffffffffffffffff169050919050565b600080600083815260200190815260200160002060009054906101000a900473ffffffffffffffffffffffffffffffffffffffff1690508073ffffffffffffffffffffffffffffffffffffffff163373ffffffffffffffffffffffffffffffffffffffff16148061027157506102708133610821565b5b6102b0576040517f08c379a00000000000000000000000000000000000000000000000000000000081526004016102a790610f75565b60405180910390fd5b826001600084815260200190815260200160002060006101000a81548173ffffffffffffffffffffffffffffffffffffffff021916908373ffffffffffffffffffffffffffffffffffffffff160217905550818373ffffffffffffffffffffffffffffffffffffffff168273ffffffffffffffffffffffffffffffffffffffff167f8c5be1e5ebec7d5bd14f71427d1e84f3dd0314c0f7b2291e5b200ac8c7c3b92560405160405180910390a4505050565b61036c33826108b5565b6103ab576040517f08c379a00000000000000000000000000000000000000000000000000000000081526004016103a290610f75565b60405180910390fd5b6103b683838361099f565b505050565b60008060008084815260200190815260200160002060009054906101000a900473ffffffffffffffffffffffffffffffffffffffff169050600073ffffffffffffffffffffffffffffffffffffffff168173ffffffffffffffffffffffffffffffffffffffff1603610462576040517f08c379a000000000000000000000000000000000000000000000000000000000815260040161045990610fe1565b60405180910390fd5b80915050919050565b600073ffffffffffffffffffffffffffffffffffffffff168173ffffffffffffffffffffffffffffffffffffffff16036104da576040517f08c379a00000000000000000000000000000000000000000000000000000000081526004016104d19061104d565b60405180910390fd5b60006004549050600460008154809291906104f49061109c565b91905055508160008083815260200190815260200160002060006101000a81548173ffffffffffffffffffffffffffffffffffffffff021916908373ffffffffffffffffffffffffffffffffffffffff160217905550600260008373ffffffffffffffffffffffffffffffffffffffff1673ffffffffffffffffffffffffffffffffffffffff168152602001908152602001600020600081548092919061059a9061109c565b9190505550808273ffffffffffffffffffffffffffffffffffffffff16600073ffffffffffffffffffffffffffffffffffffffff167fddf252ad1be2c89b69c2b068fc378daa952ba7f163c4a11628f55a4df523b3ef60405160405180910390a45050565b60008073ffffffffffffffffffffffffffffffffffffffff168273ffffffffffffffffffffffffffffffffffffffff160361066f576040517f08c379a000000000000000000000000000000000000000000000000000000000815260040161066690611130565b60405180910390fd5b600260008373ffffffffffffffffffffffffffffffffffffffff1673ffffffffffffffffffffffffffffffffffffffff168152602001908152602001600020549050919050565b3373ffffffffffffffffffffffffffffffffffffffff168273ffffffffffffffffffffffffffffffffffffffff1603610724576040517f08c379a000000000000000000000000000000000000000000000000000000000815260040161071b9061119c565b60405180910390fd5b80600360003373ffffffffffffffffffffffffffffffffffffffff1673ffffffffffffffffffffffffffffffffffffffff16815260200190815260200160002060008473ffffffffffffffffffffffffffffffffffffffff1673ffffffffffffffffffffffffffffffffffffffff16815260200190815260200160002060006101000a81548160ff0219169083151502179055508173ffffffffffffffffffffffffffffffffffffffff163373ffffffffffffffffffffffffffffffffffffffff167f17307eab39ab6107e8899845ad3d59bd9653f200f220920489ca2b5937696c31836040516108159190610efd565b60405180910390a35050565b6000600360008473ffffffffffffffffffffffffffffffffffffffff1673ffffffffffffffffffffffffffffffffffffffff16815260200190815260200160002060008373ffffffffffffffffffffffffffffffffffffffff1673ffffffffffffffffffffffffffffffffffffffff16815260200190815260200160002060009054906101000a900460ff16905092915050565b60008060008084815260200190815260200160002060009054906101000a900473ffffffffffffffffffffffffffffffffffffffff1690508073ffffffffffffffffffffffffffffffffffffffff168473ffffffffffffffffffffffffffffffffffffffff16148061098557508373ffffffffffffffffffffffffffffffffffffffff166001600085815260200190815260200160002060009054906101000a900473ffffffffffffffffffffffffffffffffffffffff1673ffffffffffffffffffffffffffffffffffffffff16145b8061099657506109958185610821565b5b91505092915050565b8273ffffffffffffffffffffffffffffffffffffffff1660008083815260200190815260200160002060009054906101000a900473ffffffffffffffffffffffffffffffffffffffff1673ffffffffffffffffffffffffffffffffffffffff1614610a3f576040517f08c379a0000000000000000000000000000000000000000000000000000000008152600401610a3690611208565b60405180910390fd5b600073ffffffffffffffffffffffffffffffffffffffff168273ffffffffffffffffffffffffffffffffffffffff1603610aae576040517f08c379a0000000000000000000000000000000000000000000000000000000008152600401610aa590611274565b60405180910390fd5b60006001600083815260200190815260200160002060006101000a81548173ffffffffffffffffffffffffffffffffffffffff021916908373ffffffffffffffffffffffffffffffffffffffff1602179055508160008083815260200190815260200160002060006101000a81548173ffffffffffffffffffffffffffffffffffffffff021916908373ffffffffffffffffffffffffffffffffffffffff160217905550600260008473ffffffffffffffffffffffffffffffffffffffff1673ffffffffffffffffffffffffffffffffffffffff1681526020019081526020016000206000815480929190610ba290611294565b9190505550600260008373ffffffffffffffffffffffffffffffffffffffff1673ffffffffffffffffffffffffffffffffffffffff1681526020019081526020016000206000815480929190610bf79061109c565b9190505550808273ffffffffffffffffffffffffffffffffffffffff168473ffffffffffffffffffffffffffffffffffffffff167fddf252ad1be2c89b69c2b068fc378daa952ba7f163c4a11628f55a4df523b3ef60405160405180910390a4505050565b600080fd5b6000819050919050565b610c7481610c61565b8114610c7f57600080fd5b50565b600081359050610c9181610c6b565b92915050565b600060208284031215610cad57610cac610c5c565b5b6000610cbb84828501610c82565b91505092915050565b600073ffffffffffffffffffffffffffffffffffffffff82169050919050565b6000610cef82610cc4565b9050919050565b610cff81610ce4565b82525050565b6000602082019050610d1a6000830184610cf6565b92915050565b610d2981610ce4565b8114610d3457600080fd5b50565b600081359050610d4681610d20565b92915050565b60008060408385031215610d6357610d62610c5c565b5b6000610d7185828601610d37565b9250506020610d8285828601610c82565b9150509250929050565b600080600060608486031215610da557610da4610c5c565b5b6000610db386828701610d37565b9350506020610dc486828701610d37565b9250506040610dd586828701610c82565b9150509250925092565b600060208284031215610df557610df4610c5c565b5b6000610e0384828501610d37565b91505092915050565b610e1581610c61565b82525050565b6000602082019050610e306000830184610e0c565b92915050565b60008115159050919050565b610e4b81610e36565b8114610e5657600080fd5b50565b600081359050610e6881610e42565b92915050565b60008060408385031215610e8557610e84610c5c565b5b6000610e9385828601610d37565b9250506020610ea485828601610e59565b9150509250929050565b60008060408385031215610ec557610ec4610c5c565b5b6000610ed385828601610d37565b9250506020610ee485828601610d37565b9150509250929050565b610ef781610e36565b82525050565b6000602082019050610f126000830184610eee565b92915050565b600082825260208201905092915050565b7f4e6f7420617070726f766564206f72206f776e65720000000000000000000000600082015250565b6000610f5f601583610f18565b9150610f6a82610f29565b602082019050919050565b60006020820190508181036000830152610f8e81610f52565b9050919050565b7f546f6b656e20646f6573206e6f74206578697374000000000000000000000000600082015250565b6000610fcb601483610f18565b9150610fd682610f95565b602082019050919050565b60006020820190508181036000830152610ffa81610fbe565b9050919050565b7f43616e6e6f74206d696e7420746f207a65726f20616464726573730000000000600082015250565b6000611037601b83610f18565b915061104282611001565b602082019050919050565b600060208201905081810360008301526110668161102a565b9050919050565b7f4e487b7100000000000000000000000000000000000000000000000000000000600052601160045260246000fd5b60006110a782610c61565b91507fffffffffffffffffffffffffffffffffffffffffffffffffffffffffffffffff82036110d9576110d861106d565b5b600182019050919050565b7f5a65726f2061646472657373206e6f7420616c6c6f7765640000000000000000600082015250565b600061111a601883610f18565b9150611125826110e4565b602082019050919050565b600060208201905081810360008301526111498161110d565b9050919050565b7f43616e6e6f742073657420617070726f76616c20666f722073656c6600000000600082015250565b6000611186601c83610f18565b915061119182611150565b602082019050919050565b600060208201905081810360008301526111b581611179565b9050919050565b7f4e6f7420746865206f776e657200000000000000000000000000000000000000600082015250565b60006111f2600d83610f18565b91506111fd826111bc565b602082019050919050565b60006020820190508181036000830152611221816111e5565b9050919050565b7f43616e6e6f74207472616e7366657220746f207a65726f206164647265737300600082015250565b600061125e601f83610f18565b915061126982611228565b602082019050919050565b6000602082019050818103600083015261128d81611251565b9050919050565b600061129f82610c61565b9150600082036112b2576112b161106d565b5b60018203905091905056fea26469706673582212202b34703afd001fa10ffdff033bf9a60ffec01941a70a11bacc7f0da4a0dec43564736f6c63430008140033",
  "linkReferences": {},
  "deployedLinkReferences": {}
}